:020000040800F2
:100000007806002089010008630C0008790B0008BD
:10001000610C00088F020008F10F000800000000CA
:10002000000000000000000000000000810F000838
:1000300091020008000000007F0F0008830F0008F5
:10004000A3010008A3010008A3010008A301000800
:10005000A3010008A3010008930200089902000808
:10006000A3010008A3010008A3010008A3010008E0
:10007000A3010008A3010008A3010008A3010008D0
:10008000A3010008A3010008A3010008A3010008C0
:10009000A3010008A3010008A3010008A3010008B0
:1000A000A3010008A3010008A3010008A3010008A0
:1000B000A3010008A3010008A3010008A301000890
:1000C000A3010008A3010008A3010008A301000880
:1000D000A3010008A3010008A3010008A301000870
:1000E000A3010008A3010008A301000800F002F822
:1000F00000F03AF80AA090E8000C82448344AAF188
:100100000107DA4501D100F02FF8AFF2090EBAE885
:100110000F0013F0010F18BFFB1A43F0010318473B
:100120004C1500006C150000103A24BF78C878C147
:10013000FAD8520724BF30C830C144BF04680C60ED
:10014000704700000023002400250026103A28BF35
:1001500078C1FBD8520728BF30C148BF0B60704739
:100160001FB51FBD10B510BD00F058F81146FFF7C0
:10017000F7FF00F04FFF00F076F803B4FFF7F2FF4F
:1001800003BC00F07DF8000009488047094800479B
:10019000FEE7FEE7FEE7FEE7FEE7FEE7FEE7FEE737
:1001A000FEE7FEE704480549054A064B7047000094
:1001B000EF0F0008ED00000878000020780600200E
:1001C00078020020780200204FF0000200B51346AC
:1001D00094469646203922BFA0E80C50A0E80C5067
:1001E000B1F12001BFF4F7AF090728BFA0E80C5018
:1001F00048BF0CC05DF804EB890028BF40F8042B11
:1002000008BF704748BF20F8022B11F0804F18BF7D
:1002100000F8012B7047704770477047754600F033
:100220002BF8AE4605006946534620F00700854688
:1002300018B020B5FFF7B6FFBDE820404FF000062C
:100240004FF000074FF000084FF0000B21F00701BE
:10025000AC46ACE8C009ACE8C009ACE8C009ACE801
:10026000C0098D46704710B50446AFF300802046A4
:10027000BDE81040FFF781BF00487047180000201C
:1002800001491820ABBEFEE7260002007047FEE7DA
:100290007047012000F050B8022000F04DB8000077
:1002A00002490022B1F900000A80704714000020C2
:1002B0007047000070B5044600F04CF90546601C1C
:1002C00002D004480078044400F044F9401BA042E6
:1002D000FAD370BD0400002070B5154C154D0128EF
:1002E00014D0022811D10120FFF7E4FF0221284693
:1002F00000F01EF9002808D10121284600F018F965
:10030000002802D12088401C208070BD0120FFF70A
:10031000D1FF0121284600F00BF90028F5D1022178
:10032000284600F005F90028EFD12088401EEBE7B1
:1003300014000020000C0140044910B50A68024274
:1003400002D00860FFF7C8FF10BD00001404014090
:100350002DE9F84FDFF8B8910024A9F1040B2346EA
:100360000F2709F1040AABF1040EC9E00125A540ED
:100370002A40AA427DD1674ED1F804C0ACEB0608F2
:10038000B44532D014DCBCF1030F3AD009DCBCF127
:10039000000F2AD0BCF1010F1CD0BCF1020F31D1EB
:1003A0001DE0BCF1110F17D0BCF1120F2AD119E0DA
:1003B000B8F5881F19D006DCB8F5803F15D0B8F520
:1003C000801F1FD111E0B8F5001F0ED0B8F5041F33
:1003D00018D10AE0CB6815E0CB681B1D12E0CB6892
:1003E00008330FE0CB680C330CE08B682BB1012B8A
:1003F0004FF0080303D0456104E0042302E00561E7
:1004000000E00023FF2A01D8064601E000F10406BF
:100410004FEA840501D9A5F12005D6F8008007FA36
:1004200005FC28EA0C0803FA05F548EA0508C6F8B1
:1004300000804D68ED0062D5374DAE6946F001068B
:10044000AE61AD6924F0030605F001050095334D5A
:1004500006EB050CDCF80850A607360F07FA06F87D
:1004600025EA0805DFF8B880404503D14FF00008C1
:1004700017E044E0DFF8AC80404502D14FF00108BE
:100480000FE0DFF8A480404502D14FF0020808E0F9
:10049000DFF89880404502D14FF0030801E04FF0AB
:1004A000040808FA06F848EA0508CCF808804D6800
:1004B000D9F80060ED024D4601D5164300E09643A1
:1004C0002E604D68DAF80060AD02554601D516433E
:1004D00000E096432E604D68DBF80060AD035D469A
:1004E00001D5164300E096432E604D68DEF80060AB
:1004F000ED03754601D5164300E096432E60641C5B
:100500000D682A46E5407FF431AFBDE8F88F000062
:1005100008040140000011100010024000000140DA
:1005200000080140000C014000100140001401408F
:100530008068084000D001207047C26821EA0203A9
:100540000A4043EA0241016170470AB10161704704
:100550000904FBE7014880687047000004000020A0
:1005600002488168027811448160704704000020CD
:10057000074810B5016841F010010160032000F048
:1005800075F80F2000F006F800F024F8002010BDE8
:100590000020024070B50D4D04464FF47A71287862
:1005A000B1FBF0F00A490968B1FBF0F000F0D0FAB5
:1005B00048B9102C07D200222146501E00F036F810
:1005C00000206C6070BD012070BD000004000020A0
:1005D000100000200C4808B5816941F001018161DB
:1005E000816901F001010091C16941F08051C1614F
:1005F000C06900F0805000900448416821F0E0613B
:1006000041F00071416008BD00100240000001404F
:10061000002809DB00F01F02012191404009800001
:1006200000F1E020C0F8001170470000F0B40E4B5C
:100630001B680C46C3F30223C3F10705042D00D940
:100640000425191D072901D2002300E0DB1E012625
:1006500006FA05F1491E214099409E40761E16403B
:100660003143F0BC00F0C5BC0CED00E0064900F0E1
:10067000070208684FF6FF03184040EA0220034AC9
:1006800010430860704700000CED00E00000FA0520
:100690002DE9F0470F46050061D0434E306800F069
:1006A0000700B84209D2306820F0070038433060B4
:1006B000306800F00700B84251D128683B4C8107F0
:1006C00012D5400703D5606840F4E0606060287888
:1006D000000703D5606840F4605060606068A968F6
:1006E00020F0F000084360602878C00728D06868D0
:1006F000012810D02168022810D0890700292EDA9D
:10070000616821F0030101436160FFF723FF804628
:1007100041F288390DE021688903EFE78901EDE7AF
:10072000FFF718FFA0EB0801494502D90320BDE8F7
:10073000F0876068696800F00C00B0EB810FEFD1C2
:10074000306800F00700B8420BD9306820F007008D
:1007500038433060306800F00700B84201D0012013
:10076000E5E72878400705D56068E96820F4E0608F
:10077000084360602878000706D56068296920F47E
:10078000605040EAC100606000F018F86168084AF3
:10079000C1F30311515CC84006490860064800686F
:1007A000FFF7F8FE0020C2E70020024000100240E0
:1007B0006A10000810000020080000200E4A51684E
:1007C0000E4801F00C03042B11D0082B0FD10C485C
:1007D000C1F38343C903C05C0AD55168084AC1F319
:1007E0004041921E515C054A5043B0FBF1F0704706
:1007F00004494843704700000010024000127A008C
:100800005A10000800093D002DE9F84F040070D08F
:100810002078C04DC00749D06868C0F38100012826
:1008200007D06868C0F38100022809D16868C00356
:1008300006D52868800339D560680028E7D035E000
:100840006068B0F5803F0BD010B1B0F5A02F11D08B
:10085000286820F480302860286820F4802002E096
:10086000286840F480302860606890B1FFF772FE1D
:1008700006460AE0286840F480202860F0E700BFC0
:10088000FFF768FE801B642873D828688003F7D5BB
:100890000CE0FFF75FFE064605E000BFFFF75AFEDB
:1008A000801B6428F0D828688003F7D420789A4EFB
:1008B00080074FF001094FF0000839D5686810F043
:1008C0000C0F07D06868C0F38100022809D168685E
:1008D000C00306D42868800714D52069012808D1F0
:1008E00010E02069B0B1C6F80090FFF733FE07466C
:1008F00005E00AE1FFF72EFEC01B0228C4D82868D5
:100900008007F7D52868616920F0F80040EAC10047
:1009100028600DE0C6F80080FFF71CFE074604E0E3
:10092000FFF718FEC01B022823D828688007F7D4D9
:10093000207800072CD57948A169D9B1C0F800907A
:10094000FFF708FE074604E0FFF704FEC01B02287D
:100950000FD8686A8007F7D571484FF4FA510068DC
:10096000B0FBF1F0009000BF0098411E0091FAD258
:100970000EE080E0C0F80080FFF7ECFD074604E0E1
:10098000FFF7E8FDC01B022875D8686A8007F7D416
:100990002078400760D5E8690027C00008D4E869DE
:1009A00040F08050E861E869012700F08050009035
:1009B0005C480168C90513D40168834641F480711D
:1009C0000160FFF7C7FD824606E000BFFFF7C2FDEA
:1009D000A0EB0A0064284ED8DBF80000C005F5D56E
:1009E000E06801280AD008B1052813D0286A20F051
:1009F00001002862286A20F0040002E0286A40F022
:100A000001002862E06841F2883B98B1FFF7A2FD3F
:100A100082460BE0286A40F004002862EEE700BF3F
:100A2000FFF798FDA0EB0A0159455AD8286A8007BC
:100A3000F6D50CE0FFF78EFD824605E0FFF78AFD54
:100A4000A0EB0A0159454CD8286A8007F6D41FB19B
:100A5000E86920F08050E861E06988B36968C1F313
:100A60008101022944D00228C6F8608004D0FFF733
:100A700071FD044638E034E0FFF76CFD074604E002
:100A8000FFF768FDC01B02282BD828688001F7D427
:100A9000206AB0F5803F05D16868A16820F4003075
:100AA00008436860D4E908010843696821F47411B7
:100AB00008436860C6F86090FFF74CFD044606E006
:100AC00025E000BFFFF746FD001B022809D8286873
:100AD0008001F7D51BE000BFFFF73CFD001B02289B
:100AE00002D90320BDE8F88F28688001F4D40EE015
:100AF0000128F7D06868226A00F48031914204D15D
:100B0000616A00F47010884201D00120EAE70020F9
:100B1000E8E7000000100240000042428004424228
:100B20001000002000700040074800684FF4FA7180
:100B3000B0FBF1F201FB1200002804D14FF4005188
:100B40000248FFF7FABC70470C000020001001407B
:100B500010B5401EB0F1807F01D3012010BD4FF0D1
:100B6000E02460610F21601700F043FA0020A061CB
:100B700007202061002010BDFEE700002DE9F041B4
:100B800086B0002432480094019402940394816951
:100B900041F010018161816901F0100104918169C6
:100BA00041F020018161816901F020010491816996
:100BB00041F008018161816901F0080104918169B6
:100BC00041F0040181618069224E00F004004FF47D
:100BD00000550490002229463046FFF7B6FCDFF8A6
:100BE00078804FF44077002239464046FFF7ADFC4D
:100BF000009501250220CDE9015003906946304659
:100C0000FFF7A6FB032615480096CDE901056946C6
:100C10004046FFF79DFB01AA1120009782E8510092
:100C200069464046FFF794FB002201210620FFF7AA
:100C3000FDFC0620FFF7ECFC002202210720FFF755
:100C4000F5FC0720FFF7E4FC06B0BDE8F0810000EA
:100C50000010024000100140000C01400000211073
:100C6000FEE7FEE770B500240021204600F0E1F821
:100C70000025002000F072F96D1CEDB2802DF8D334
:100C8000641CE4B2082CEFD370BD000010B5064C14
:100C9000012211022046FFF758FC20460122BDE840
:100CA00010405102FFF751BC000C01402DE9F04704
:100CB000164E002407464FF080084FF40079B51512
:100CC00028FA04F0384201D0012200E0002249460F
:100CD0003046FFF73AFC012229463046FFF735FC43
:100CE000002229463046FFF730FC641CE4B2082C91
:100CF000E6D3012229463046FFF727FC2946304635
:100D0000BDE8F0470022FFF720BC0000000C0140C6
:100D100070B501220B4D540221462846FFF715FC01
:100D20000122160231462846FFF70FFC0022214619
:100D30002846FFF70AFC31462846BDE870400022ED
:100D4000FFF703BC000C014070B50A4D4FF400746E
:100D5000002221462846FFF7F8FB0122110228460F
:100D6000FFF7F3FB21462846BDE870400122FFF75C
:100D7000ECBB0000000C014010B500204FF47A726B
:100D80000021491C9142FCD3401C9042F8D3FFF74C
:100D90007DFFAE2000F0D1F8D52000F0CEF8802005
:100DA00000F0CBF8A82000F0C8F83F2000F0C5F80C
:100DB000D32000F0C2F8002000F0BFF8402000F07F
:100DC000BCF8A12000F0B9F8C82000F0B6F8DA208D
:100DD00000F0B3F8122000F0B0F8812000F0ADF878
:100DE000CF2000F0AAF8D92000F0A7F8F12000F0F9
:100DF000A4F8DB2000F0A1F8302000F09EF8A42039
:100E000000F09BF8A62000F098F88D2000F095F8EF
:100E1000142000F092F8AF2000F08FF8BDE81040E9
:100E2000FFF720BF0246012000E05043491EFCD2DC
:100E3000704710B50C4640F0B00000F07EF810206E
:100E400040EA141000F079F804F00F00BDE81040FB
:100E500000F073B82DE9F0410746CE004000083E8F
:100E6000801E15464FF0FF38F1B2C0B2FFF7E1FF28
:100E70001148002400EB05152819A0F5805090F8C2
:100E8000000E00F06BF8641CE4B2082CF4D308EBFD
:100E90004700F1B2C0B2FFF7CCFF00242819A0F53B
:100EA000805090F8080E00F059F8641CE4B2082C49
:100EB000F4D3BDE8F08100007A1000082DE9F04776
:100EC0001E4614008846814604D42B22FFF7C2FF39
:100ED000254603E02D22FFF7BDFF654200240A27C7
:100EE00014E0311B0A20491EFFF79CFFB5FBF0F010
:100EF000B0FBF7F107FB110208EB0400401CC1B284
:100F000048463032FFF7A6FF641CE4B2B442E8D38F
:100F1000BDE8F0872DE9F04115460E46074600244E
:100F200006E03019C1B23846FFF794FF641CE4B202
:100F30002A5D002AF5D1BDE8F08110B50446FFF71F
:100F4000E7FE7820FFF7B2FE0020FFF7AFFE204655
:100F5000FFF7ACFEBDE81040FFF7F6BE10B5044643
:100F6000FFF7D6FE7820FFF7A1FE4020FFF79EFE98
:100F70002046FFF79BFEBDE81040FFF7E5BE704737
:100F8000704710B5FFF7ECFABDE81040FFF7CCBD95
:100F900030B58FB028216846FFF716F914210AA84A
:100FA000FFF712F901210804CDE900100024029492
:100FB00002250491CDE907504FF4E01009906846EE
:100FC000FFF722FC08B172B6FEE70F20CDE90A0553
:100FD0004FF48060CDE90C4002210AA80E94FFF77F
:100FE00057FB002801D072B6FEE70FB030BD704746
:100FF000FEE70907090E002804DB00F1E02080F875
:101000000014704700F00F0000F1E02080F8141D7C
:1010100070470000FFF7ACFAFFF7BAFFFFF7AEFD2D
:10102000FFF7AAFEFFF744F9012108A20846FFF7DF
:1010300071FF084CFFF734F921880523084402B2F8
:10104000228019460120FFF739FFF3E74E756D3A0C
:101050000000000000000020010202030405060752
:1010600008090A0B0C0D0E0F101000000000000004
:101070000000010203040607080900000000000048
:1010800000000000000000000000000000F8000068
:101090000000000000333000000000100C06100CAF
:1010A0000600000000000000000040C07840C0784A
:1010B0004000043F04043F040400007088FC083032
:1010C0000000001820FF211E0000F008F000E018CA
:1010D000000000211C031E211E0000F00888700083
:1010E00000001E2123241927211010160E000000D5
:1010F00000000000000000000000000000E01804F4
:101100000200000000071820400000020418E00060
:1011100000000040201807000000404080F08040A0
:1011200040000202010F01020200000000F0000076
:1011300000000101011F010101000000000000008A
:10114000000080B0700000000000000000000000FF
:101150000000000101010101010100000000000088
:10116000000000303000000000000000000080603F
:101170001804006018060100000000E010080810C4
:10118000E000000F102020100F00001010F80000E9
:1011900000000020203F2020000000700808088880
:1011A0007000003028242221300000300888884850
:1011B00030000018202020110E000000C02010F880
:1011C000000000070424243F240000F80888880851
:1011D00008000019212020110E0000E01088881856
:1011E0000000000F112020110E0000380808C83838
:1011F00008000000003F0000000000708808088818
:101200007000001C222121221C0000E010080810A0
:10121000E0000000312222110F00000000C0C000D9
:1012200000000000003030000000000000800000DE
:1012300000000000806000000000000080402010DE
:1012400008000001020408102000404040404040D7
:10125000400004040404040404000008102040803A
:10126000000000201008040201000070480808086F
:10127000F0000000003036010000C030C828E8103F
:10128000E0000718272423140B000000C038E000FA
:101290000000203C23020227382008F88888887044
:1012A0000000203F202020110E00C0300808080850
:1012B0003800071820202010080008F80808081037
:1012C000E000203F202020100F0008F88888E80860
:1012D0001000203F20202320180008F88888E80804
:1012E0001000203F200003000000C030080808382C
:1012F000000007182020221E020008F8080000083D
:10130000F808203F210101213F20000808F80808C3
:1013100000000020203F2020000000000808F808FE
:101320000800C08080807F00000008F888C028186E
:101330000800203F20012638200008F8080000009F
:101340000000203F20202020300008F8F800F8F8A6
:101350000800203F003F003F200008F830C0000890
:10136000F808203F200007183F00E0100808081088
:10137000E0000F10202020100F0008F808080808CF
:10138000F000203F210101010000E01008080810D2
:10139000E0000F18242438504F0008F88888888807
:1013A0007000203F2000030C3020007088080808DF
:1013B00038000038202121221C00180808F80808ED
:1013C00018000000203F2000000008F80800000876
:1013D000F808001F202020201F000878880000C87F
:1013E0003808000007380E010000F80800F800086F
:1013F000F800033C0700073C030008186880806879
:10140000180820302C03032C30200838C800C838B6
:1014100008000000203F2000000010080808C8381D
:1014200008002038262120201800000000FE0202BB
:1014300002000000007F40404000000C30C000006F
:101440000000000000010638C00000020202FE0099
:101450000000004040407F00000000000402020243
:101460000400000000000000000000000000000078
:101470000000808080808080808000020204000064
:10148000000000000000000000000000808080805C
:1014900000000019242222223F2008F8008080004A
:1014A0000000003F112020110E000000008080800D
:1014B0000000000E11202020110000000080808814
:1014C000F800000E112020103F2000008080808056
:1014D0000000001F222222221300008080F0888852
:1014E00088180020203F202000000000808080809D
:1014F0008000006B94949493600008F800808080D2
:101500000000203F210000203F200080989800002C
:1015100000000020203F202000000000008098985C
:10152000000000C08080807F000008F800008080FC
:101530008000203F24022D302000000808F8000021
:1015400000000020203F20200000808080808080DC
:101550008000203F20003F20003F8080008080806E
:101560000000203F210000203F200000808080807C
:101570000000001F202020201F00808000808000AD
:10158000000080FFA12020110E000000008080805C
:101590008000000E112020A0FF80808080008080CD
:1015A000800020203F2120000100000080808080FA
:1015B00080000033242424241900008080E08080EF
:1015C00000000000001F202000008080000000803C
:1015D0008000001F202020103F208080800000809D
:1015E000808000010E3008060100808000800080AD
:1015F00080800F300C030C300F0000808000808052
:1016000080000020312E0E3120008080800000807C
:10161000808080818E70180601000080808080802C
:1016200080000021302C2221300000000000807C4E
:10163000020200000000003F404000000000FF00E8
:10164000000000000000FF0000000002027C80009B
:1016500000000040403F00000000000601010202BF
:101660000404000000000000000000008C160008C8
:10167000000000201800000028010008A41600083F
:10168000180000206006000044010008000000006F
:1016900001000000100000000000000000127A00AD
:0416A0000000000046
:04000005080000ED02
:00000001FF
