:020000040800F2
:10000000C0060020890100085B0F00083F0E0008B1
:10001000590F00088F020008D913000800000000E3
:100020000000000000000000000000006312000853
:10003000910200080000000061120008651200082B
:10004000A3010008A3010008A3010008A301000800
:10005000A3010008A3010008A3010008A3010008F0
:10006000A3010008A3010008A3010008A3010008E0
:10007000A3010008A3010008A3010008A3010008D0
:10008000A3010008A3010008A3010008A3010008C0
:10009000A3010008A3010008A3010008A3010008B0
:1000A000A3010008A3010008A3010008A3010008A0
:1000B000D5120008A3010008A3010008A30100084D
:1000C000A3010008A3010008A3010008A301000880
:1000D000A3010008A3010008A3010008A301000870
:1000E000A3010008A3010008A301000800F002F822
:1000F00000F03AF80AA090E8000C82448344AAF188
:100100000107DA4501D100F02FF8AFF2090EBAE885
:100110000F0013F0010F18BFFB1A43F0010318473B
:100120003019000050190000103A24BF78C878C177
:10013000FAD8520724BF30C830C144BF04680C60ED
:10014000704700000023002400250026103A28BF35
:1001500078C1FBD8520728BF30C148BF0B60704739
:100160001FB51FBD10B510BD00F058F81146FFF7C0
:10017000F7FF01F043F900F076F803B4FFF7F2FF60
:1001800003BC00F07DF8000009488047094800479B
:10019000FEE7FEE7FEE7FEE7FEE7FEE7FEE7FEE737
:1001A000FEE7FEE704480549054A064B7047000094
:1001B000D1120008ED000008C0000020C006002099
:1001C000C0020020C00200204FF0000200B513461C
:1001D00094469646203922BFA0E80C50A0E80C5067
:1001E000B1F12001BFF4F7AF090728BFA0E80C5018
:1001F00048BF0CC05DF804EB890028BF40F8042B11
:1002000008BF704748BF20F8022B11F0804F18BF7D
:1002100000F8012B7047704770477047754600F033
:100220002BF8AE4605006946534620F00700854688
:1002300018B020B5FFF7B6FFBDE820404FF000062C
:100240004FF000074FF000084FF0000B21F00701BE
:10025000AC46ACE8C009ACE8C009ACE8C009ACE801
:10026000C0098D46704710B50446AFF300802046A4
:10027000BDE81040FFF781BF004870475C000020D8
:1002800001491820ABBEFEE7260002007047FEE7DA
:10029000704772B6FEE700002DE9F84FDFF8B8911D
:1002A0000024A9F1040B23460F2709F1040AABF13E
:1002B000040EC9E00125A5402A40AA427DD1674E1F
:1002C000D1F804C0ACEB0608B44532D014DCBCF164
:1002D000030F3AD009DCBCF1000F2AD0BCF1010FAA
:1002E0001CD0BCF1020F31D11DE0BCF1110F17D0B1
:1002F000BCF1120F2AD119E0B8F5881F19D006DC1D
:10030000B8F5803F15D0B8F5801F1FD111E0B8F5C2
:10031000001F0ED0B8F5041F18D10AE0CB6815E015
:10032000CB681B1D12E0CB6808330FE0CB680C33A1
:100330000CE08B682BB1012B4FF0080303D0456113
:1003400004E0042302E0056100E00023FF2A01D855
:10035000064601E000F104064FEA840501D9A5F143
:100360002005D6F8008007FA05FC28EA0C0803FAF5
:1003700005F548EA0508C6F800804D68ED0062D52D
:10038000374DAE6946F00106AE61AD6924F0030653
:1003900005F001050095334D06EB050CDCF808501F
:1003A000A607360F07FA06F825EA0805DFF8B88031
:1003B000404503D14FF0000817E044E0DFF8AC807F
:1003C000404502D14FF001080FE0DFF8A48040451E
:1003D00002D14FF0020808E0DFF89880404502D1D2
:1003E0004FF0030801E04FF0040808FA06F848EA65
:1003F0000508CCF808804D68D9F80060ED024D463C
:1004000001D5164300E096432E604D68DAF800608F
:10041000AD02554601D5164300E096432E604D6867
:10042000DBF80060AD035D4601D5164300E096435E
:100430002E604D68DEF80060ED03754601D5164369
:1004400000E096432E60641C0D682A46E5407FF468
:1004500031AFBDE8F88F0000080401400000111022
:10046000001002400000014000080140000C014063
:100470000010014000140140C26821EA02030A4052
:1004800043EA0241016170470AB101617047090402
:10049000FBE700000148806870470000040000206E
:1004A000024881680278114481607047040000208E
:1004B000074810B5016841F010010160032000F009
:1004C00075F80F2000F006F800F024F8002010BDA9
:1004D0000020024070B50D4D04464FF47A71287823
:1004E000B1FBF0F00A490968B1FBF0F000F0D0FA76
:1004F00048B9102C07D200222146501E00F036F8D1
:1005000000206C6070BD012070BD00000400002060
:10051000100000200C4808B5816941F0010181619B
:10052000816901F001010091C16941F08051C1610F
:10053000C06900F0805000900448416821F0E061FB
:1005400041F00071416008BD001002400000014010
:10055000002809DB00F01F020121914040098000C2
:1005600000F1E020C0F8001170470000F0B40E4B1D
:100570001B680C46C3F30223C3F10705042D00D901
:100580000425191D072901D2002300E0DB1E0126E6
:1005900006FA05F1491E214099409E40761E1640FC
:1005A0003143F0BC00F019BF0CED00E0064900F04B
:1005B000070208684FF6FF03184040EA0220034A8A
:1005C00010430860704700000CED00E00000FA05E1
:1005D0002DE9F0470F46050061D0434E306800F02A
:1005E0000700B84209D2306820F007003843306075
:1005F000306800F00700B84251D128683B4C8107B1
:1006000012D5400703D5606840F4E0606060287848
:10061000000703D5606840F4605060606068A968B6
:1006200020F0F000084360602878C00728D0686890
:10063000012810D02168022810D0890700292EDA5D
:10064000616821F0030101436160FFF723FF8046E9
:1006500041F288390DE021688903EFE78901EDE770
:10066000FFF718FFA0EB0801494502D90320BDE8B8
:10067000F0876068696800F00C00B0EB810FEFD183
:10068000306800F00700B8420BD9306820F007004E
:1006900038433060306800F00700B84201D00120D4
:1006A000E5E72878400705D56068E96820F4E06050
:1006B000084360602878000706D56068296920F43F
:1006C000605040EAC100606000F018F86168084AB4
:1006D000C1F30311515CC840064908600648006830
:1006E000FFF7F8FE0020C2E70020024000100240A1
:1006F0004E14000810000020080000200E4A516827
:100700000E4801F00C03042B11D0082B0FD10C481C
:10071000C1F38343C903C05C0AD55168084AC1F3D9
:100720004041921E515C054A5043B0FBF1F07047C6
:1007300004494843704700000010024000127A004C
:100740003E14000800093D002DE9F84F040070D068
:100750002078C04DC00749D06868C0F381000128E7
:1007600007D06868C0F38100022809D16868C00317
:1007700006D52868800339D560680028E7D035E0C1
:100780006068B0F5803F0BD010B1B0F5A02F11D04C
:10079000286820F480302860286820F4802002E057
:1007A000286840F480302860606890B1FFF772FEDE
:1007B00006460AE0286840F480202860F0E700BF81
:1007C000FFF768FE801B642873D828688003F7D57C
:1007D0000CE0FFF75FFE064605E000BFFFF75AFE9C
:1007E000801B6428F0D828688003F7D420789A4EBC
:1007F00080074FF001094FF0000839D5686810F004
:100800000C0F07D06868C0F38100022809D168681E
:10081000C00306D42868800714D52069012808D1B0
:1008200010E02069B0B1C6F80090FFF733FE07462C
:1008300005E00AE1FFF72EFEC01B0228C4D8286895
:100840008007F7D52868616920F0F80040EAC10008
:1008500028600DE0C6F80080FFF71CFE074604E0A4
:10086000FFF718FEC01B022823D828688007F7D49A
:10087000207800072CD57948A169D9B1C0F800903B
:10088000FFF708FE074604E0FFF704FEC01B02283E
:100890000FD8686A8007F7D571484FF4FA5100689D
:1008A000B0FBF1F0009000BF0098411E0091FAD219
:1008B0000EE080E0C0F80080FFF7ECFD074604E0A2
:1008C000FFF7E8FDC01B022875D8686A8007F7D4D7
:1008D0002078400760D5E8690027C00008D4E8699F
:1008E00040F08050E861E869012700F080500090F6
:1008F0005C480168C90513D40168834641F48071DE
:100900000160FFF7C7FD824606E000BFFFF7C2FDAA
:10091000A0EB0A0064284ED8DBF80000C005F5D52E
:10092000E06801280AD008B1052813D0286A20F011
:1009300001002862286A20F0040002E0286A40F0E2
:1009400001002862E06841F2883B98B1FFF7A2FD00
:1009500082460BE0286A40F004002862EEE700BF00
:10096000FFF798FDA0EB0A0159455AD8286A80077D
:10097000F6D50CE0FFF78EFD824605E0FFF78AFD15
:10098000A0EB0A0159454CD8286A8007F6D41FB15C
:10099000E86920F08050E861E06988B36968C1F3D4
:1009A0008101022944D00228C6F8608004D0FFF7F4
:1009B00071FD044638E034E0FFF76CFD074604E0C3
:1009C000FFF768FDC01B02282BD828688001F7D4E8
:1009D000206AB0F5803F05D16868A16820F4003036
:1009E00008436860D4E908010843696821F4741178
:1009F00008436860C6F86090FFF74CFD044606E0C7
:100A000025E000BFFFF746FD001B022809D8286833
:100A10008001F7D51BE000BFFFF73CFD001B02285B
:100A200002D90320BDE8F88F28688001F4D40EE0D5
:100A30000128F7D06868226A00F48031914204D11D
:100A4000616A00F47010884201D00120EAE70020BA
:100A5000E8E70000001002400000424280044242E9
:100A60001000002000700040074800684FF4FA7141
:100A7000B0FBF1F201FB1200002804D14FF4005149
:100A80000248FFF7F9BC70470C000020001001403D
:100A900010B5401EB0F1807F01D3012010BD4FF092
:100AA000E02460610F21601700F097FC0020A06136
:100AB00007202061002010BD7047704770B590F886
:100AC0003C20012A26D0012480F83C40022280F8F4
:100AD0003D2003685A689D6822F070060A68324318
:100AE0005A600D4B02689A4208D0B2F1804F05D08F
:100AF0000A4B9A4202D00A4B9A4204D1496825F027
:100B000080031943916080F83D40002180F83C103B
:100B1000084670BD022070BD002C0140000400405A
:100B20000008004010B5040003D094F83D0010B157
:100B300007E0012010BD002084F83C00204600F0B2
:100B40001FF8022084F83D00211D206800F0C8FB3A
:100B5000012084F8460084F83E0084F83F0084F8C1
:100B6000400084F8410084F8420084F8430084F88F
:100B7000440084F8450084F83D00002010BD0000CA
:100B800008B50068B0F1804F12D10A48C16941F040
:100B90000101C161C069002200F001000090022142
:100BA0001C20FFF7E3FCBDE808401C20FFF7D0BC89
:100BB00008BD00000010024090F83D10012901D04E
:100BC00001207047022180F83D100168CA6842F098
:100BD0000102CA6000680B49884208D0B0F1804F1A
:100BE00005D00949884202D00849884204D1816869
:100BF00001F00701062903D0016841F001010160FD
:100C000000207047002C0140000400400008004014
:100C100070B5044690F83C000025012817D0012645
:100C200084F83C60022084F83D002068826822F04D
:100C3000770222F47F4282600868502838D00DDCA9
:100C400020284FD005DC90B3102811D14AE00220B3
:100C500070BD302846D040280AD13BE060282FD014
:100C600070280DD0B0F5805F03D0B0F5005F12D0D2
:100C7000012584F83D60002084F83C00284670BDC2
:100C8000CB68D1E90121206800F066FB206881680B
:100C900041F0770109E0CB68D1E90121206800F03B
:100CA0005BFB2068816841F480418160E1E719E0E5
:100CB000CA684968206800F061FB5021206806E09E
:100CC000CA684968206800F06AFB6021206800F06B
:100CD0004DFBCEE7CA684968206800F04FFB402111
:100CE0002068F4E7226801461046F0E770472DE9D6
:100CF000F04104460068C66805694FF00007A9077F
:100D000013D5B10711D5F91E0161012020772068A4
:100D100080698007204602D0FFF7E8FF04E000F07A
:100D20007EF8204600F07CF82777680716D5700714
:100D300014D521686FF00400086102202077206834
:100D4000806910F4407F204602D0FFF7CFFF04E017
:100D500000F065F8204600F063F82777280715D5DE
:100D6000300713D521686FF0080008610420207750
:100D70002068C0698007204602D0FFF7B7FF04E073
:100D800000F04DF8204600F04BF82777E80616D51E
:100D9000F00614D521686FF0100008610820207754
:100DA0002068C06910F4407F204602D0FFF79EFF04
:100DB00004E000F034F8204600F032F82777E80726
:100DC00008D0F00706D021686FF0010008612046C6
:100DD00000F028F8280608D5300606D521686FF0FF
:100DE000800008612046FFF767FE680608D5700698
:100DF00006D521686FF040000861204600F01EF81B
:100E0000A8060AD5B00608D521686FF02000086151
:100E10002046BDE8F041FFF750BEBDE8F0817047C5
:100E2000704700000068B0F1804F03D10249088884
:100E3000401C088070470000000000207047FEE75B
:100E40002DE9F04186B000242648009401940294D4
:100E50000394816941F010018161816901F0100101
:100E60000491816941F020018161816901F02001D3
:100E70000491816941F004018161816901F00401FB
:100E80000491816941F0080181618069164F00F089
:100E900008004FF400550490002229463846FFF719
:100EA000F3FADFF848804FF440760022314640469E
:100EB000FFF7EAFA0120CDE90050022002900390EA
:100EC00069463846FFF7E8F911200096CDE901049C
:100ED0000320039069464046FFF7DEF906B0BDE8FF
:100EE000F08100000010024000100140000C0140A1
:100EF00010B586B00024174800940194029403941E
:100F000004944FF080410594016041F61F41C0E90F
:100F1000011442F20F71C0E903148461FFF702FE6D
:100F200008B1FFF7B6F94FF48050009069460948C0
:100F3000FFF76EFE08B1FFF7ACF9049404A9054869
:100F40000594FFF7BBFD002801D0FFF7A2F906B01A
:100F500010BD000014000020FEE7FEE770B500247D
:100F60000021204600F0E1F80025002000F067F99C
:100F70006D1CEDB2802DF8D3641CE4B2082CEFD3C5
:100F800070BD000010B5064C012211022046FFF78B
:100F90007BFA20460122BDE810405102FFF774BAE7
:100FA000000C01402DE9F047164E002407464FF093
:100FB00080084FF40079B51528FA04F0384201D0C2
:100FC000012200E0002249463046FFF75DFA012287
:100FD00029463046FFF758FA002229463046FFF7E7
:100FE00053FA641CE4B2082CE6D3012229463046A9
:100FF000FFF74AFA29463046BDE8F0470022FFF7DE
:1010000043BA0000000C014070B501220B4D5402A0
:1010100021462846FFF738FA0122160231462846B3
:10102000FFF732FA002221462846FFF72DFA314613
:101030002846BDE870400022FFF726BA000C0140A8
:1010400070B50A4D4FF40074002221462846FFF780
:101050001BFA012211022846FFF716FA21462846FC
:10106000BDE870400122FFF70FBA0000000C0140FC
:1010700010B500204FF47A720021491C9142FCD334
:10108000401C9042F8D3FFF77DFFAE2000F0C6F879
:10109000D52000F0C3F8802000F0C0F8A82000F0B0
:1010A000BDF83F2000F0BAF8D32000F0B7F80020D8
:1010B00000F0B4F8402000F0B1F8A12000F0AEF844
:1010C000C82000F0ABF8DA2000F0A8F8122000F0F9
:1010D000A5F8812000F0A2F8CF2000F09FF8D920D9
:1010E00000F09CF8F12000F099F8DB2000F096F871
:1010F000302000F093F8A42000F090F8A62000F033
:101100008DF88D2000F08AF8142000F087F8AF20C9
:1011100000F084F8BDE81040FFF720BF0246012030
:1011200000E05043491EFCD2704710B50C4640F019
:10113000B00000F073F8102040EA141000F06EF8D0
:1011400004F00F00BDE8104000F068B82DE9F04150
:101150000746CE004000083E801E15464FF0FF387F
:10116000F1B2C0B2FFF7E1FF1148002400EB051512
:101170002819A0F5805090F8000E00F060F8641C6B
:10118000E4B2082CF4D308EB4700F1B2C0B2FFF789
:10119000CCFF00242819A0F5805090F8080E00F02C
:1011A0004EF8641CE4B2082CF4D3BDE8F0810000D2
:1011B0005E1400082DE9F04700241D4616468846B7
:1011C00081460A2713E0291B0A20491EFFF7A6FFC4
:1011D000B6FBF0F0B0FBF7F107FB110208EB0400DF
:1011E000C1B248463032FFF7B1FF641CE4B2AC42F2
:1011F000E9D3BDE8F0872DE9F04115460E460746D4
:10120000002406E03019C1B23846FFF79FFF641C86
:10121000E4B22A5D002AF5D1BDE8F08110B504469C
:10122000FFF7F2FE7820FFF7BDFE0020FFF7BAFEC1
:101230002046FFF7B7FEBDE81040FFF701BF10B52D
:101240000446FFF7E1FE7820FFF7ACFE4020FFF7F1
:10125000A9FE2046FFF7A6FEBDE81040FFF7F0BE4E
:101260007047704710B5FFF71BF9BDE81040FFF756
:10127000FBBB30B58FB028216846FEF7A5FF1421CF
:101280000AA8FEF7A1FF01210804CDE900100024FF
:10129000029402250491CDE907504FF4E010099023
:1012A0006846FFF751FA08B172B6FEE70F20CDE9A4
:1012B0000A054FF48060CDE90C4002210AA80E9483
:1012C000FFF786F9002801D072B6FEE70FB030BDF7
:1012D000704700000148FFF70ABD0000140000201D
:1012E000F0B50268194B1A4C1A4D4FF080479842DE
:1012F00005D0B84203D0A04201D0A84203D122F0C9
:1013000070064A683243984205D0B84203D0A042E2
:1013100001D0A84203D122F44074CA6822434C6928
:1013200022F08002224302608A68C2620A688262F6
:10133000984201D109690163012141610169C9072D
:1013400003D0016921F001010161F0BD002C0140D1
:10135000000400400008004010B5846842EA0322FF
:1013600024F47F440A432243826010BD826822F045
:1013700070020A4342F007018160704710B5036AAA
:10138000046A24F001040462846924F0F00444EA4D
:10139000021423F00A020A438461026210BD10B5F0
:1013A000036A046A24F010040462846923F0A00331
:1013B00024F4704444EA023243EA0111826101627A
:1013C00010BD000003496FF0010009680861014881
:1013D000FFF7F2BB14000020FEE70907090E002802
:1013E00004DB00F1E02080F80014704700F00F00EB
:1013F00000F1E02080F8141D70470000FFF758F856
:10140000FFF737FFFFF71CFDFFF772FDFFF730FE18
:10141000FFF7D8FF012106A20846FFF7ECFE064CB5
:101420000523194622880120FFF7C4FEF8E70000D3
:101430004E756D3A0000000000000020010202031A
:101440000405060708090A0B0C0D0E0F101000000A
:101450000000000000000102030406070809000064
:10146000000000000000000000000000000000007C
:1014700000F8000000000000003330000000001001
:101480000C06100C0600000000000000000040C028
:101490007840C0784000043F04043F04040000701A
:1014A00088FC08300000001820FF211E0000F00812
:1014B000F000E018000000211C031E211E0000F0B7
:1014C0000888700000001E212324192721101016FF
:1014D0000E000000000000000000000000000000FE
:1014E00000E018040200000000071820400000027D
:1014F0000418E000000000402018070000004040F1
:1015000080F0804040000202010F01020200000052
:1015100000F0000000000101011F010101000000B6
:1015200000000000000080B070000000000000001B
:1015300000000000000000010101010101010000A4
:10154000000000000000003030000000000000003B
:10155000000080601804006018060100000000E030
:1015600010080810E000000F102020100F000010DD
:1015700010F8000000000020203F20200000007034
:10158000080808887000003028242221300000302C
:101590000888884830000018202020110E00000024
:1015A000C02010F8000000070424243F240000F8A5
:1015B0000888880808000019212020110E0000E08A
:1015C000108888180000000F112020110E0000382C
:1015D0000808C83808000000003F00000000007044
:1015E000880808887000001C222121221C0000E0CD
:1015F00010080810E0000000312222110F00000046
:1016000000C0C000000000000030300000000000FA
:10161000008000000000000080600000000000006A
:101620008040201008000001020408102000404003
:101630004040404040000404040404040400000846
:1016400010204080000000201008040201000070FB
:1016500048080808F0000000003036010000C030E3
:10166000C828E810E0000718272423140B00000006
:10167000C038E0000000203C23020227382008F890
:10168000888888700000203F202020110E00C03084
:10169000080808083800071820202010080008F85B
:1016A00008080810E000203F202020100F0008F854
:1016B0008888E8081000203F20202320180008F820
:1016C0008888E8081000203F200003000000C03098
:1016D00008080838000007182020221E020008F819
:1016E00008000008F808203F210101213F200008E0
:1016F00008F8080800000020203F2020000000001B
:101700000808F8080800C08080807F00000008F802
:1017100088C028180800203F20012638200008F83B
:10172000080000000000203F20202020300008F8A2
:10173000F800F8F80800203F003F003F200008F8BC
:1017400030C00008F808203F200007183F00E010D4
:1017500008080810E0000F10202020100F0008F8E3
:1017600008080808F000203F210101010000E010F6
:1017700008080810E0000F18242438504F0008F81B
:10178000888888887000203F2000030C302000707B
:101790008808080838000038202121221C00180879
:1017A00008F8080818000000203F2000000008F892
:1017B00008000008F808001F202020201F000878DB
:1017C000880000C83808000007380E010000F8083B
:1017D00000F80008F800033C0700073C0300081865
:1017E00068808068180820302C03032C30200838CB
:1017F000C800C83808000000203F20000000100882
:101800000808C838080020382621202018000000C9
:1018100000FE020202000000007F40404000000C79
:1018200030C000000000000000010638C0000002C7
:101830000202FE000000004040407F000000000067
:10184000040202020400000000000000000000008A
:101850000000000000008080808080808080000286
:101860000204000000000000000000000000000072
:101870008080808000000019242222223F2008F866
:10188000008080000000003F112020110E000000A9
:10189000008080800000000E112020201100000038
:1018A00000808088F800000E112020103F200000EA
:1018B000808080800000001F2222222213000080EE
:1018C00080F0888888180020203F20200000000039
:1018D000808080808000006B94949493600008F86E
:1018E000008080800000203F210000203F200080F9
:1018F0009898000000000020203F202000000000F9
:1019000000809898000000C08080807F000008F868
:10191000000080808000203F24022D30200000083D
:1019200008F8000000000020203F202000008080F8
:10193000808080808000203F20003F20003F80800A
:10194000008080800000203F210000203F20000018
:10195000808080800000001F202020201F008080C9
:1019600000808000000080FFA12020110E000000F8
:10197000008080808000000E112020A0FF808080E9
:1019800080008080800020203F2120000100000096
:10199000808080808000003324242424190000806B
:1019A00080E0808000000000001F20200000808078
:1019B000000000808000001F202020103F20808039
:1019C00080000080808000010E30080601008080C9
:1019D0000080008080800F300C030C300F000080EE
:1019E0008000808080000020312E0E312000808019
:1019F00080000080808080818E7018060100008049
:101A00008080808080000021302C22213000000066
:101A10000000807C020200000000003F4040000007
:101A20000000FF00000000000000FF0000000002B6
:101A3000027C800000000040403F000000000006E3
:101A40000101020204040000000000000000000088
:101A5000701A00080000002014000000280100088F
:101A6000841A000814000020AC060000440100089D
:101A70000000000001000000100000000000000055
:041A800000127A00D6
:04000005080000ED02
:00000001FF
